{
  "_format": "hh-sol-artifact-1",
  "contractName": "OptionsContract",
  "sourceName": "contracts/OptionsContract.sol",
  "abi": [
    {
      "inputs": [
        {
          "internalType": "string",
          "name": "_name",
          "type": "string"
        },
        {
          "internalType": "string",
          "name": "_symbol",
          "type": "string"
        },
        {
          "internalType": "address",
          "name": "_owner",
          "type": "address"
        },
        {
          "internalType": "address",
          "name": "_priceFeed",
          "type": "address"
        }
      ],
      "stateMutability": "nonpayable",
      "type": "constructor"
    },
    {
      "anonymous": false,
      "inputs": [
        {
          "indexed": true,
          "internalType": "address",
          "name": "owner",
          "type": "address"
        },
        {
          "indexed": true,
          "internalType": "address",
          "name": "spender",
          "type": "address"
        },
        {
          "indexed": false,
          "internalType": "uint256",
          "name": "value",
          "type": "uint256"
        }
      ],
      "name": "Approval",
      "type": "event"
    },
    {
      "anonymous": false,
      "inputs": [
        {
          "indexed": false,
          "internalType": "uint256",
          "name": "optionID",
          "type": "uint256"
        }
      ],
      "name": "OptionExercised",
      "type": "event"
    },
    {
      "anonymous": false,
      "inputs": [
        {
          "indexed": false,
          "internalType": "address",
          "name": "buyer",
          "type": "address"
        },
        {
          "indexed": false,
          "internalType": "uint256",
          "name": "strikePrice",
          "type": "uint256"
        },
        {
          "indexed": false,
          "internalType": "uint256",
          "name": "optionPremium",
          "type": "uint256"
        },
        {
          "indexed": false,
          "internalType": "uint256",
          "name": "expirationTime",
          "type": "uint256"
        }
      ],
      "name": "OptionMinted",
      "type": "event"
    },
    {
      "anonymous": false,
      "inputs": [
        {
          "indexed": true,
          "internalType": "address",
          "name": "from",
          "type": "address"
        },
        {
          "indexed": true,
          "internalType": "address",
          "name": "to",
          "type": "address"
        },
        {
          "indexed": false,
          "internalType": "uint256",
          "name": "value",
          "type": "uint256"
        }
      ],
      "name": "Transfer",
      "type": "event"
    },
    {
      "inputs": [],
      "name": "addLiquidity",
      "outputs": [],
      "stateMutability": "payable",
      "type": "function"
    },
    {
      "inputs": [
        {
          "internalType": "address",
          "name": "owner",
          "type": "address"
        },
        {
          "internalType": "address",
          "name": "spender",
          "type": "address"
        }
      ],
      "name": "allowance",
      "outputs": [
        {
          "internalType": "uint256",
          "name": "",
          "type": "uint256"
        }
      ],
      "stateMutability": "view",
      "type": "function"
    },
    {
      "inputs": [
        {
          "internalType": "address",
          "name": "spender",
          "type": "address"
        },
        {
          "internalType": "uint256",
          "name": "amount",
          "type": "uint256"
        }
      ],
      "name": "approve",
      "outputs": [
        {
          "internalType": "bool",
          "name": "",
          "type": "bool"
        }
      ],
      "stateMutability": "nonpayable",
      "type": "function"
    },
    {
      "inputs": [
        {
          "internalType": "address",
          "name": "account",
          "type": "address"
        }
      ],
      "name": "balanceOf",
      "outputs": [
        {
          "internalType": "uint256",
          "name": "",
          "type": "uint256"
        }
      ],
      "stateMutability": "view",
      "type": "function"
    },
    {
      "inputs": [],
      "name": "decimals",
      "outputs": [
        {
          "internalType": "uint8",
          "name": "",
          "type": "uint8"
        }
      ],
      "stateMutability": "view",
      "type": "function"
    },
    {
      "inputs": [
        {
          "internalType": "address",
          "name": "spender",
          "type": "address"
        },
        {
          "internalType": "uint256",
          "name": "subtractedValue",
          "type": "uint256"
        }
      ],
      "name": "decreaseAllowance",
      "outputs": [
        {
          "internalType": "bool",
          "name": "",
          "type": "bool"
        }
      ],
      "stateMutability": "nonpayable",
      "type": "function"
    },
    {
      "inputs": [
        {
          "internalType": "uint256",
          "name": "_optionID",
          "type": "uint256"
        }
      ],
      "name": "exerciseOption",
      "outputs": [
        {
          "internalType": "uint256",
          "name": "",
          "type": "uint256"
        }
      ],
      "stateMutability": "nonpayable",
      "type": "function"
    },
    {
      "inputs": [],
      "name": "getDecimals",
      "outputs": [
        {
          "internalType": "uint8",
          "name": "",
          "type": "uint8"
        }
      ],
      "stateMutability": "view",
      "type": "function"
    },
    {
      "inputs": [],
      "name": "getLatestPrice",
      "outputs": [
        {
          "internalType": "int256",
          "name": "",
          "type": "int256"
        }
      ],
      "stateMutability": "view",
      "type": "function"
    },
    {
      "inputs": [
        {
          "internalType": "address",
          "name": "spender",
          "type": "address"
        },
        {
          "internalType": "uint256",
          "name": "addedValue",
          "type": "uint256"
        }
      ],
      "name": "increaseAllowance",
      "outputs": [
        {
          "internalType": "bool",
          "name": "",
          "type": "bool"
        }
      ],
      "stateMutability": "nonpayable",
      "type": "function"
    },
    {
      "inputs": [
        {
          "internalType": "uint256",
          "name": "_strikePrice",
          "type": "uint256"
        },
        {
          "internalType": "uint256",
          "name": "_optionPremium",
          "type": "uint256"
        },
        {
          "internalType": "uint256",
          "name": "_expirationTime",
          "type": "uint256"
        }
      ],
      "name": "mintOption",
      "outputs": [],
      "stateMutability": "payable",
      "type": "function"
    },
    {
      "inputs": [],
      "name": "name",
      "outputs": [
        {
          "internalType": "string",
          "name": "",
          "type": "string"
        }
      ],
      "stateMutability": "view",
      "type": "function"
    },
    {
      "inputs": [],
      "name": "symbol",
      "outputs": [
        {
          "internalType": "string",
          "name": "",
          "type": "string"
        }
      ],
      "stateMutability": "view",
      "type": "function"
    },
    {
      "inputs": [],
      "name": "totalLiquidity",
      "outputs": [
        {
          "internalType": "uint256",
          "name": "",
          "type": "uint256"
        }
      ],
      "stateMutability": "view",
      "type": "function"
    },
    {
      "inputs": [],
      "name": "totalSupply",
      "outputs": [
        {
          "internalType": "uint256",
          "name": "",
          "type": "uint256"
        }
      ],
      "stateMutability": "view",
      "type": "function"
    },
    {
      "inputs": [
        {
          "internalType": "address",
          "name": "recipient",
          "type": "address"
        },
        {
          "internalType": "uint256",
          "name": "amount",
          "type": "uint256"
        }
      ],
      "name": "transfer",
      "outputs": [
        {
          "internalType": "bool",
          "name": "",
          "type": "bool"
        }
      ],
      "stateMutability": "nonpayable",
      "type": "function"
    },
    {
      "inputs": [
        {
          "internalType": "address",
          "name": "sender",
          "type": "address"
        },
        {
          "internalType": "address",
          "name": "recipient",
          "type": "address"
        },
        {
          "internalType": "uint256",
          "name": "amount",
          "type": "uint256"
        }
      ],
      "name": "transferFrom",
      "outputs": [
        {
          "internalType": "bool",
          "name": "",
          "type": "bool"
        }
      ],
      "stateMutability": "nonpayable",
      "type": "function"
    }
  ],
  "bytecode": "0x6080604052670de0b6b3a76400006008553480156200001d57600080fd5b506040516200290c3803806200290c8339818101604052810190620000439190620003b7565b838381600390805190602001906200005d92919062000105565b5080600490805190602001906200007692919062000105565b50505081600560006101000a81548173ffffffffffffffffffffffffffffffffffffffff021916908373ffffffffffffffffffffffffffffffffffffffff16021790555080600960006101000a81548173ffffffffffffffffffffffffffffffffffffffff021916908373ffffffffffffffffffffffffffffffffffffffff16021790555050505050620004cc565b828054620001139062000496565b90600052602060002090601f01602090048101928262000137576000855562000183565b82601f106200015257805160ff191683800117855562000183565b8280016001018555821562000183579182015b828111156200018257825182559160200191906001019062000165565b5b50905062000192919062000196565b5090565b5b80821115620001b157600081600090555060010162000197565b5090565b6000604051905090565b600080fd5b600080fd5b600080fd5b600080fd5b6000601f19601f8301169050919050565b7f4e487b7100000000000000000000000000000000000000000000000000000000600052604160045260246000fd5b6200021e82620001d3565b810181811067ffffffffffffffff8211171562000240576200023f620001e4565b5b80604052505050565b600062000255620001b5565b905062000263828262000213565b919050565b600067ffffffffffffffff821115620002865762000285620001e4565b5b6200029182620001d3565b9050602081019050919050565b60005b83811015620002be578082015181840152602081019050620002a1565b83811115620002ce576000848401525b50505050565b6000620002eb620002e58462000268565b62000249565b9050828152602081018484840111156200030a5762000309620001ce565b5b620003178482856200029e565b509392505050565b600082601f830112620003375762000336620001c9565b5b815162000349848260208601620002d4565b91505092915050565b600073ffffffffffffffffffffffffffffffffffffffff82169050919050565b60006200037f8262000352565b9050919050565b620003918162000372565b81146200039d57600080fd5b50565b600081519050620003b18162000386565b92915050565b60008060008060808587031215620003d457620003d3620001bf565b5b600085015167ffffffffffffffff811115620003f557620003f4620001c4565b5b62000403878288016200031f565b945050602085015167ffffffffffffffff811115620004275762000426620001c4565b5b62000435878288016200031f565b93505060406200044887828801620003a0565b92505060606200045b87828801620003a0565b91505092959194509250565b7f4e487b7100000000000000000000000000000000000000000000000000000000600052602260045260246000fd5b60006002820490506001821680620004af57607f821691505b60208210811415620004c657620004c562000467565b5b50919050565b61243080620004dc6000396000f3fe6080604052600436106100fe5760003560e01c806370a0823111610095578063a9059cbb11610064578063a9059cbb14610352578063dd62ed3e1461038f578063e8078d94146103cc578063f0141d84146103d6578063f52f252614610401576100fe565b806370a08231146102825780638e15f473146102bf57806395d89b41146102ea578063a457c2d714610315576100fe565b806323b872dd116100d157806323b872dd146101c1578063313ce567146101fe5780633950935114610229578063562c239e14610266576100fe565b806306fdde0314610103578063095ea7b31461012e57806315770f921461016b57806318160ddd14610196575b600080fd5b34801561010f57600080fd5b5061011861043e565b6040516101259190611680565b60405180910390f35b34801561013a57600080fd5b506101556004803603810190610150919061173b565b6104d0565b6040516101629190611796565b60405180910390f35b34801561017757600080fd5b506101806104ee565b60405161018d91906117c0565b60405180910390f35b3480156101a257600080fd5b506101ab6104f4565b6040516101b891906117c0565b60405180910390f35b3480156101cd57600080fd5b506101e860048036038101906101e391906117db565b6104fe565b6040516101f59190611796565b60405180910390f35b34801561020a57600080fd5b506102136105f6565b604051610220919061184a565b60405180910390f35b34801561023557600080fd5b50610250600480360381019061024b919061173b565b6105ff565b60405161025d9190611796565b60405180910390f35b610280600480360381019061027b9190611865565b6106ab565b005b34801561028e57600080fd5b506102a960048036038101906102a491906118b8565b610826565b6040516102b691906117c0565b60405180910390f35b3480156102cb57600080fd5b506102d461086e565b6040516102e191906118fe565b60405180910390f35b3480156102f657600080fd5b506102ff61091e565b60405161030c9190611680565b60405180910390f35b34801561032157600080fd5b5061033c6004803603810190610337919061173b565b6109b0565b6040516103499190611796565b60405180910390f35b34801561035e57600080fd5b506103796004803603810190610374919061173b565b610a9b565b6040516103869190611796565b60405180910390f35b34801561039b57600080fd5b506103b660048036038101906103b19190611919565b610ab9565b6040516103c391906117c0565b60405180910390f35b6103d4610b40565b005b3480156103e257600080fd5b506103eb610b5b565b6040516103f8919061184a565b60405180910390f35b34801561040d57600080fd5b5061042860048036038101906104239190611959565b610c07565b60405161043591906117c0565b60405180910390f35b60606003805461044d906119b5565b80601f0160208091040260200160405190810160405280929190818152602001828054610479906119b5565b80156104c65780601f1061049b576101008083540402835291602001916104c6565b820191906000526020600020905b8154815290600101906020018083116104a957829003601f168201915b5050505050905090565b60006104e46104dd610e52565b8484610e5a565b6001905092915050565b60075481565b6000600254905090565b600061050b848484611025565b6000600160008673ffffffffffffffffffffffffffffffffffffffff1673ffffffffffffffffffffffffffffffffffffffff1681526020019081526020016000206000610556610e52565b73ffffffffffffffffffffffffffffffffffffffff1673ffffffffffffffffffffffffffffffffffffffff168152602001908152602001600020549050828110156105d6576040517f08c379a00000000000000000000000000000000000000000000000000000000081526004016105cd90611a59565b60405180910390fd5b6105ea856105e2610e52565b858403610e5a565b60019150509392505050565b60006012905090565b60006106a161060c610e52565b84846001600061061a610e52565b73ffffffffffffffffffffffffffffffffffffffff1673ffffffffffffffffffffffffffffffffffffffff16815260200190815260200160002060008873ffffffffffffffffffffffffffffffffffffffff1673ffffffffffffffffffffffffffffffffffffffff1681526020019081526020016000205461069c9190611aa8565b610e5a565b6001905092915050565b8260075410156106ba57600080fd5b81836106c69190611aa8565b341015610708576040517f08c379a00000000000000000000000000000000000000000000000000000000081526004016106ff90611b70565b60405180910390fd5b6006600081548092919061071b90611b90565b9190505550600060405180608001604052803373ffffffffffffffffffffffffffffffffffffffff16815260200185815260200184815260200183815250905080600a6000600654815260200190815260200160002060008201518160000160006101000a81548173ffffffffffffffffffffffffffffffffffffffff021916908373ffffffffffffffffffffffffffffffffffffffff1602179055506020820151816001015560408201518160020155606082015181600301559050506107e333846112a6565b7fd25e9c8a7c7dd9c3d0d451d7f1fae7c97675a289891e1003df62e9a9f064d281338585856040516108189493929190611be8565b60405180910390a150505050565b60008060008373ffffffffffffffffffffffffffffffffffffffff1673ffffffffffffffffffffffffffffffffffffffff168152602001908152602001600020549050919050565b600080600960009054906101000a900473ffffffffffffffffffffffffffffffffffffffff1673ffffffffffffffffffffffffffffffffffffffff1663feaf968c6040518163ffffffff1660e01b815260040160a06040518083038186803b1580156108d957600080fd5b505afa1580156108ed573d6000803e3d6000fd5b505050506040513d601f19601f820116820180604052508101906109119190611cb0565b5050509150508091505090565b60606004805461092d906119b5565b80601f0160208091040260200160405190810160405280929190818152602001828054610959906119b5565b80156109a65780601f1061097b576101008083540402835291602001916109a6565b820191906000526020600020905b81548152906001019060200180831161098957829003601f168201915b5050505050905090565b600080600160006109bf610e52565b73ffffffffffffffffffffffffffffffffffffffff1673ffffffffffffffffffffffffffffffffffffffff16815260200190815260200160002060008573ffffffffffffffffffffffffffffffffffffffff1673ffffffffffffffffffffffffffffffffffffffff16815260200190815260200160002054905082811015610a7c576040517f08c379a0000000000000000000000000000000000000000000000000000000008152600401610a7390611d9d565b60405180910390fd5b610a90610a87610e52565b85858403610e5a565b600191505092915050565b6000610aaf610aa8610e52565b8484611025565b6001905092915050565b6000600160008473ffffffffffffffffffffffffffffffffffffffff1673ffffffffffffffffffffffffffffffffffffffff16815260200190815260200160002060008373ffffffffffffffffffffffffffffffffffffffff1673ffffffffffffffffffffffffffffffffffffffff16815260200190815260200160002054905092915050565b3460076000828254610b529190611aa8565b92505081905550565b600080600960009054906101000a900473ffffffffffffffffffffffffffffffffffffffff1673ffffffffffffffffffffffffffffffffffffffff1663313ce5676040518163ffffffff1660e01b815260040160206040518083038186803b158015610bc657600080fd5b505afa158015610bda573d6000803e3d6000fd5b505050506040513d601f19601f82011682018060405250810190610bfe9190611de9565b90508091505090565b600080600a60008481526020019081526020016000209050610e108160030154610c319190611e16565b421015610c73576040517f08c379a0000000000000000000000000000000000000000000000000000000008152600401610c6a90611e96565b60405180910390fd5b60008160010154600854610c879190611eb6565b905060008112610d22576000826001015482610ca39190611aa8565b905060003373ffffffffffffffffffffffffffffffffffffffff1682604051610ccb90611f7b565b60006040518083038185875af1925050503d8060008114610d08576040519150601f19603f3d011682016040523d82523d6000602084013e610d0d565b606091505b5050905080610d1b57600080fd5b5050610dae565b6000811215610dad5760008260010154905060003373ffffffffffffffffffffffffffffffffffffffff1682604051610d5a90611f7b565b60006040518083038185875af1925050503d8060008114610d97576040519150601f19603f3d011682016040523d82523d6000602084013e610d9c565b606091505b5050905080610daa57600080fd5b50505b5b610dbc338360020154611406565b600a6000858152602001908152602001600020600080820160006101000a81549073ffffffffffffffffffffffffffffffffffffffff021916905560018201600090556002820160009055600382016000905550507f40fa53b29d8c15f04aaf47eb5ff1233fa5375ea930eeb743a7753617151bd97384604051610e4091906117c0565b60405180910390a18392505050919050565b600033905090565b600073ffffffffffffffffffffffffffffffffffffffff168373ffffffffffffffffffffffffffffffffffffffff161415610eca576040517f08c379a0000000000000000000000000000000000000000000000000000000008152600401610ec190612002565b60405180910390fd5b600073ffffffffffffffffffffffffffffffffffffffff168273ffffffffffffffffffffffffffffffffffffffff161415610f3a576040517f08c379a0000000000000000000000000000000000000000000000000000000008152600401610f3190612094565b60405180910390fd5b80600160008573ffffffffffffffffffffffffffffffffffffffff1673ffffffffffffffffffffffffffffffffffffffff16815260200190815260200160002060008473ffffffffffffffffffffffffffffffffffffffff1673ffffffffffffffffffffffffffffffffffffffff168152602001908152602001600020819055508173ffffffffffffffffffffffffffffffffffffffff168373ffffffffffffffffffffffffffffffffffffffff167f8c5be1e5ebec7d5bd14f71427d1e84f3dd0314c0f7b2291e5b200ac8c7c3b9258360405161101891906117c0565b60405180910390a3505050565b600073ffffffffffffffffffffffffffffffffffffffff168373ffffffffffffffffffffffffffffffffffffffff161415611095576040517f08c379a000000000000000000000000000000000000000000000000000000000815260040161108c90612126565b60405180910390fd5b600073ffffffffffffffffffffffffffffffffffffffff168273ffffffffffffffffffffffffffffffffffffffff161415611105576040517f08c379a00000000000000000000000000000000000000000000000000000000081526004016110fc906121b8565b60405180910390fd5b6111108383836115dd565b60008060008573ffffffffffffffffffffffffffffffffffffffff1673ffffffffffffffffffffffffffffffffffffffff16815260200190815260200160002054905081811015611196576040517f08c379a000000000000000000000000000000000000000000000000000000000815260040161118d9061224a565b60405180910390fd5b8181036000808673ffffffffffffffffffffffffffffffffffffffff1673ffffffffffffffffffffffffffffffffffffffff16815260200190815260200160002081905550816000808573ffffffffffffffffffffffffffffffffffffffff1673ffffffffffffffffffffffffffffffffffffffff16815260200190815260200160002060008282546112299190611aa8565b925050819055508273ffffffffffffffffffffffffffffffffffffffff168473ffffffffffffffffffffffffffffffffffffffff167fddf252ad1be2c89b69c2b068fc378daa952ba7f163c4a11628f55a4df523b3ef8460405161128d91906117c0565b60405180910390a36112a08484846115e2565b50505050565b600073ffffffffffffffffffffffffffffffffffffffff168273ffffffffffffffffffffffffffffffffffffffff161415611316576040517f08c379a000000000000000000000000000000000000000000000000000000000815260040161130d906122b6565b60405180910390fd5b611322600083836115dd565b80600260008282546113349190611aa8565b92505081905550806000808473ffffffffffffffffffffffffffffffffffffffff1673ffffffffffffffffffffffffffffffffffffffff16815260200190815260200160002060008282546113899190611aa8565b925050819055508173ffffffffffffffffffffffffffffffffffffffff16600073ffffffffffffffffffffffffffffffffffffffff167fddf252ad1be2c89b69c2b068fc378daa952ba7f163c4a11628f55a4df523b3ef836040516113ee91906117c0565b60405180910390a3611402600083836115e2565b5050565b600073ffffffffffffffffffffffffffffffffffffffff168273ffffffffffffffffffffffffffffffffffffffff161415611476576040517f08c379a000000000000000000000000000000000000000000000000000000000815260040161146d90612348565b60405180910390fd5b611482826000836115dd565b60008060008473ffffffffffffffffffffffffffffffffffffffff1673ffffffffffffffffffffffffffffffffffffffff16815260200190815260200160002054905081811015611508576040517f08c379a00000000000000000000000000000000000000000000000000000000081526004016114ff906123da565b60405180910390fd5b8181036000808573ffffffffffffffffffffffffffffffffffffffff1673ffffffffffffffffffffffffffffffffffffffff16815260200190815260200160002081905550816002600082825461155f9190611e16565b92505081905550600073ffffffffffffffffffffffffffffffffffffffff168373ffffffffffffffffffffffffffffffffffffffff167fddf252ad1be2c89b69c2b068fc378daa952ba7f163c4a11628f55a4df523b3ef846040516115c491906117c0565b60405180910390a36115d8836000846115e2565b505050565b505050565b505050565b600081519050919050565b600082825260208201905092915050565b60005b83811015611621578082015181840152602081019050611606565b83811115611630576000848401525b50505050565b6000601f19601f8301169050919050565b6000611652826115e7565b61165c81856115f2565b935061166c818560208601611603565b61167581611636565b840191505092915050565b6000602082019050818103600083015261169a8184611647565b905092915050565b600080fd5b600073ffffffffffffffffffffffffffffffffffffffff82169050919050565b60006116d2826116a7565b9050919050565b6116e2816116c7565b81146116ed57600080fd5b50565b6000813590506116ff816116d9565b92915050565b6000819050919050565b61171881611705565b811461172357600080fd5b50565b6000813590506117358161170f565b92915050565b60008060408385031215611752576117516116a2565b5b6000611760858286016116f0565b925050602061177185828601611726565b9150509250929050565b60008115159050919050565b6117908161177b565b82525050565b60006020820190506117ab6000830184611787565b92915050565b6117ba81611705565b82525050565b60006020820190506117d560008301846117b1565b92915050565b6000806000606084860312156117f4576117f36116a2565b5b6000611802868287016116f0565b9350506020611813868287016116f0565b925050604061182486828701611726565b9150509250925092565b600060ff82169050919050565b6118448161182e565b82525050565b600060208201905061185f600083018461183b565b92915050565b60008060006060848603121561187e5761187d6116a2565b5b600061188c86828701611726565b935050602061189d86828701611726565b92505060406118ae86828701611726565b9150509250925092565b6000602082840312156118ce576118cd6116a2565b5b60006118dc848285016116f0565b91505092915050565b6000819050919050565b6118f8816118e5565b82525050565b600060208201905061191360008301846118ef565b92915050565b600080604083850312156119305761192f6116a2565b5b600061193e858286016116f0565b925050602061194f858286016116f0565b9150509250929050565b60006020828403121561196f5761196e6116a2565b5b600061197d84828501611726565b91505092915050565b7f4e487b7100000000000000000000000000000000000000000000000000000000600052602260045260246000fd5b600060028204905060018216806119cd57607f821691505b602082108114156119e1576119e0611986565b5b50919050565b7f45524332303a207472616e7366657220616d6f756e742065786365656473206160008201527f6c6c6f77616e6365000000000000000000000000000000000000000000000000602082015250565b6000611a436028836115f2565b9150611a4e826119e7565b604082019050919050565b60006020820190508181036000830152611a7281611a36565b9050919050565b7f4e487b7100000000000000000000000000000000000000000000000000000000600052601160045260246000fd5b6000611ab382611705565b9150611abe83611705565b9250827fffffffffffffffffffffffffffffffffffffffffffffffffffffffffffffffff03821115611af357611af2611a79565b5b828201905092915050565b7f4c4f434b20434f4c4c41544552414c3a206e6f7420656e6f756768206574682060008201527f746f206c6f636b20696e20636f6c6c61746572616c0000000000000000000000602082015250565b6000611b5a6035836115f2565b9150611b6582611afe565b604082019050919050565b60006020820190508181036000830152611b8981611b4d565b9050919050565b6000611b9b82611705565b91507fffffffffffffffffffffffffffffffffffffffffffffffffffffffffffffffff821415611bce57611bcd611a79565b5b600182019050919050565b611be2816116c7565b82525050565b6000608082019050611bfd6000830187611bd9565b611c0a60208301866117b1565b611c1760408301856117b1565b611c2460608301846117b1565b95945050505050565b600069ffffffffffffffffffff82169050919050565b611c4c81611c2d565b8114611c5757600080fd5b50565b600081519050611c6981611c43565b92915050565b611c78816118e5565b8114611c8357600080fd5b50565b600081519050611c9581611c6f565b92915050565b600081519050611caa8161170f565b92915050565b600080600080600060a08688031215611ccc57611ccb6116a2565b5b6000611cda88828901611c5a565b9550506020611ceb88828901611c86565b9450506040611cfc88828901611c9b565b9350506060611d0d88828901611c9b565b9250506080611d1e88828901611c5a565b9150509295509295909350565b7f45524332303a2064656372656173656420616c6c6f77616e63652062656c6f7760008201527f207a65726f000000000000000000000000000000000000000000000000000000602082015250565b6000611d876025836115f2565b9150611d9282611d2b565b604082019050919050565b60006020820190508181036000830152611db681611d7a565b9050919050565b611dc68161182e565b8114611dd157600080fd5b50565b600081519050611de381611dbd565b92915050565b600060208284031215611dff57611dfe6116a2565b5b6000611e0d84828501611dd4565b91505092915050565b6000611e2182611705565b9150611e2c83611705565b925082821015611e3f57611e3e611a79565b5b828203905092915050565b7f6e6f742077697468696e20657865726369736520706572696f64000000000000600082015250565b6000611e80601a836115f2565b9150611e8b82611e4a565b602082019050919050565b60006020820190508181036000830152611eaf81611e73565b9050919050565b6000611ec1826118e5565b9150611ecc836118e5565b9250827f800000000000000000000000000000000000000000000000000000000000000001821260008412151615611f0757611f06611a79565b5b827f7fffffffffffffffffffffffffffffffffffffffffffffffffffffffffffffff018213600084121615611f3f57611f3e611a79565b5b828203905092915050565b600081905092915050565b50565b6000611f65600083611f4a565b9150611f7082611f55565b600082019050919050565b6000611f8682611f58565b9150819050919050565b7f45524332303a20617070726f76652066726f6d20746865207a65726f2061646460008201527f7265737300000000000000000000000000000000000000000000000000000000602082015250565b6000611fec6024836115f2565b9150611ff782611f90565b604082019050919050565b6000602082019050818103600083015261201b81611fdf565b9050919050565b7f45524332303a20617070726f766520746f20746865207a65726f20616464726560008201527f7373000000000000000000000000000000000000000000000000000000000000602082015250565b600061207e6022836115f2565b915061208982612022565b604082019050919050565b600060208201905081810360008301526120ad81612071565b9050919050565b7f45524332303a207472616e736665722066726f6d20746865207a65726f20616460008201527f6472657373000000000000000000000000000000000000000000000000000000602082015250565b60006121106025836115f2565b915061211b826120b4565b604082019050919050565b6000602082019050818103600083015261213f81612103565b9050919050565b7f45524332303a207472616e7366657220746f20746865207a65726f206164647260008201527f6573730000000000000000000000000000000000000000000000000000000000602082015250565b60006121a26023836115f2565b91506121ad82612146565b604082019050919050565b600060208201905081810360008301526121d181612195565b9050919050565b7f45524332303a207472616e7366657220616d6f756e742065786365656473206260008201527f616c616e63650000000000000000000000000000000000000000000000000000602082015250565b60006122346026836115f2565b915061223f826121d8565b604082019050919050565b6000602082019050818103600083015261226381612227565b9050919050565b7f45524332303a206d696e7420746f20746865207a65726f206164647265737300600082015250565b60006122a0601f836115f2565b91506122ab8261226a565b602082019050919050565b600060208201905081810360008301526122cf81612293565b9050919050565b7f45524332303a206275726e2066726f6d20746865207a65726f2061646472657360008201527f7300000000000000000000000000000000000000000000000000000000000000602082015250565b60006123326021836115f2565b915061233d826122d6565b604082019050919050565b6000602082019050818103600083015261236181612325565b9050919050565b7f45524332303a206275726e20616d6f756e7420657863656564732062616c616e60008201527f6365000000000000000000000000000000000000000000000000000000000000602082015250565b60006123c46022836115f2565b91506123cf82612368565b604082019050919050565b600060208201905081810360008301526123f3816123b7565b905091905056fea26469706673582212201d9dc9614d4bc3be9c2f507b68fdceb3ab53afd42f3034e74aeb611a2cb62a9a64736f6c63430008090033",
  "linkReferences": {},
  "deployedLinkReferences": {}
}